{
  "_format": "hh-sol-artifact-1",
  "contractName": "Comments",
  "sourceName": "contracts/Comments.sol",
  "abi": [
    {
      "anonymous": false,
      "inputs": [
        {
          "components": [
            {
              "internalType": "uint32",
              "name": "id",
              "type": "uint32"
            },
            {
              "internalType": "string",
              "name": "topic",
              "type": "string"
            },
            {
              "internalType": "address",
              "name": "creator_address",
              "type": "address"
            },
            {
              "internalType": "string",
              "name": "message",
              "type": "string"
            },
            {
              "internalType": "uint256",
              "name": "created_at",
              "type": "uint256"
            }
          ],
          "indexed": false,
          "internalType": "struct Comments.Comment",
          "name": "comment",
          "type": "tuple"
        }
      ],
      "name": "CommentAdded",
      "type": "event"
    },
    {
      "inputs": [
        {
          "internalType": "string",
          "name": "topic",
          "type": "string"
        },
        {
          "internalType": "string",
          "name": "message",
          "type": "string"
        }
      ],
      "name": "addComment",
      "outputs": [],
      "stateMutability": "nonpayable",
      "type": "function"
    },
    {
      "inputs": [
        {
          "internalType": "string",
          "name": "topic",
          "type": "string"
        }
      ],
      "name": "getComments",
      "outputs": [
        {
          "components": [
            {
              "internalType": "uint32",
              "name": "id",
              "type": "uint32"
            },
            {
              "internalType": "string",
              "name": "topic",
              "type": "string"
            },
            {
              "internalType": "address",
              "name": "creator_address",
              "type": "address"
            },
            {
              "internalType": "string",
              "name": "message",
              "type": "string"
            },
            {
              "internalType": "uint256",
              "name": "created_at",
              "type": "uint256"
            }
          ],
          "internalType": "struct Comments.Comment[]",
          "name": "",
          "type": "tuple[]"
        }
      ],
      "stateMutability": "view",
      "type": "function"
    },
    {
      "inputs": [
        {
          "internalType": "string",
          "name": "topic",
          "type": "string"
        }
      ],
      "name": "getCommments",
      "outputs": [
        {
          "components": [
            {
              "internalType": "uint32",
              "name": "id",
              "type": "uint32"
            },
            {
              "internalType": "string",
              "name": "topic",
              "type": "string"
            },
            {
              "internalType": "address",
              "name": "creator_address",
              "type": "address"
            },
            {
              "internalType": "string",
              "name": "message",
              "type": "string"
            },
            {
              "internalType": "uint256",
              "name": "created_at",
              "type": "uint256"
            }
          ],
          "internalType": "struct Comments.Comment[]",
          "name": "",
          "type": "tuple[]"
        }
      ],
      "stateMutability": "view",
      "type": "function"
    }
  ],
  "bytecode": "0x608060405234801561001057600080fd5b50610b56806100206000396000f3fe608060405234801561001057600080fd5b50600436106100415760003560e01c806330f336fb1461004657806370c63fcc14610076578063ae5ff905146100a6575b600080fd5b610060600480360381019061005b919061063f565b6100c2565b60405161006d9190610920565b60405180910390f35b610090600480360381019061008b919061063f565b6100ca565b60405161009d9190610920565b60405180910390f35b6100c060048036038101906100bb9190610684565b6102f4565b005b606092915050565b6060600083836040516100de929190610907565b9081526020016040518091039020805480602002602001604051908101604052809291908181526020016000905b828210156102e857838290600052602060002090600502016040518060a00160405290816000820160009054906101000a900463ffffffff1663ffffffff1663ffffffff16815260200160018201805461016590610a52565b80601f016020809104026020016040519081016040528092919081815260200182805461019190610a52565b80156101de5780601f106101b3576101008083540402835291602001916101de565b820191906000526020600020905b8154815290600101906020018083116101c157829003601f168201915b505050505081526020016002820160009054906101000a900473ffffffffffffffffffffffffffffffffffffffff1673ffffffffffffffffffffffffffffffffffffffff1673ffffffffffffffffffffffffffffffffffffffff16815260200160038201805461024d90610a52565b80601f016020809104026020016040519081016040528092919081815260200182805461027990610a52565b80156102c65780601f1061029b576101008083540402835291602001916102c6565b820191906000526020600020905b8154815290600101906020018083116102a957829003601f168201915b505050505081526020016004820154815250508152602001906001019061010c565b50505050905092915050565b60006040518060a00160405280600160009054906101000a900463ffffffff1663ffffffff16815260200186868080601f016020809104026020016040519081016040528093929190818152602001838380828437600081840152601f19601f8201169050808301925050505050505081526020013373ffffffffffffffffffffffffffffffffffffffff16815260200184848080601f016020809104026020016040519081016040528093929190818152602001838380828437600081840152601f19601f820116905080830192505050505050508152602001428152509050600085856040516103e7929190610907565b908152602001604051809103902081908060018154018082558091505060019003906000526020600020906005020160009091909190915060008201518160000160006101000a81548163ffffffff021916908363ffffffff1602179055506020820151816001019080519060200190610462929190610552565b5060408201518160020160006101000a81548173ffffffffffffffffffffffffffffffffffffffff021916908373ffffffffffffffffffffffffffffffffffffffff16021790555060608201518160030190805190602001906104c6929190610552565b506080820151816004015550506001600081819054906101000a900463ffffffff16809291906104f590610a84565b91906101000a81548163ffffffff021916908363ffffffff160217905550507fe77ab75f376cc3dcd9506272f00c91ec2ff78acb373dc7b53aedecb1da207022816040516105439190610942565b60405180910390a15050505050565b82805461055e90610a52565b90600052602060002090601f01602090048101928261058057600085556105c7565b82601f1061059957805160ff19168380011785556105c7565b828001600101855582156105c7579182015b828111156105c65782518255916020019190600101906105ab565b5b5090506105d491906105d8565b5090565b5b808211156105f15760008160009055506001016105d9565b5090565b60008083601f84011261060757600080fd5b8235905067ffffffffffffffff81111561062057600080fd5b60208301915083600182028301111561063857600080fd5b9250929050565b6000806020838503121561065257600080fd5b600083013567ffffffffffffffff81111561066c57600080fd5b610678858286016105f5565b92509250509250929050565b6000806000806040858703121561069a57600080fd5b600085013567ffffffffffffffff8111156106b457600080fd5b6106c0878288016105f5565b9450945050602085013567ffffffffffffffff8111156106df57600080fd5b6106eb878288016105f5565b925092505092959194509250565b600061070583836107ef565b905092915050565b610716816109c4565b82525050565b600061072782610974565b6107318185610997565b93508360208202850161074385610964565b8060005b8581101561077f578484038952815161076085826106f9565b945061076b8361098a565b925060208a01995050600181019050610747565b50829750879550505050505092915050565b600061079d83856109b9565b93506107aa838584610a10565b82840190509392505050565b60006107c18261097f565b6107cb81856109a8565b93506107db818560208601610a1f565b6107e481610b0f565b840191505092915050565b600060a08301600083015161080760008601826108f8565b506020830151848203602086015261081f82826107b6565b9150506040830151610834604086018261070d565b506060830151848203606086015261084c82826107b6565b915050608083015161086160808601826108e9565b508091505092915050565b600060a08301600083015161088460008601826108f8565b506020830151848203602086015261089c82826107b6565b91505060408301516108b1604086018261070d565b50606083015184820360608601526108c982826107b6565b91505060808301516108de60808601826108e9565b508091505092915050565b6108f2816109f6565b82525050565b61090181610a00565b82525050565b6000610914828486610791565b91508190509392505050565b6000602082019050818103600083015261093a818461071c565b905092915050565b6000602082019050818103600083015261095c818461086c565b905092915050565b6000819050602082019050919050565b600081519050919050565b600081519050919050565b6000602082019050919050565b600082825260208201905092915050565b600082825260208201905092915050565b600081905092915050565b60006109cf826109d6565b9050919050565b600073ffffffffffffffffffffffffffffffffffffffff82169050919050565b6000819050919050565b600063ffffffff82169050919050565b82818337600083830152505050565b60005b83811015610a3d578082015181840152602081019050610a22565b83811115610a4c576000848401525b50505050565b60006002820490506001821680610a6a57607f821691505b60208210811415610a7e57610a7d610ae0565b5b50919050565b6000610a8f82610a00565b915063ffffffff821415610aa657610aa5610ab1565b5b600182019050919050565b7f4e487b7100000000000000000000000000000000000000000000000000000000600052601160045260246000fd5b7f4e487b7100000000000000000000000000000000000000000000000000000000600052602260045260246000fd5b6000601f19601f830116905091905056fea264697066735822122054d40b2f84320bb31c2874514b7833f2a3a2c04cd295e73b8124c45db09f1d7e64736f6c63430008040033",
  "linkReferences": {},
  "deployedLinkReferences": {}
}